:040000008A15002934
:0E000600F201F101F001F801F30100300800F1
:100014007B15FB1F14280130F300F201F101F001FC
:08002400FA0DF20CFF30080098
:08002C00FA1FF2130030080076
:06003400000000000800BE
:10003A000F3083120313FC004730FD00FD0B232809
:0A004A00FC0B232800000000080052
:0E005400213083120313FD00FD0B2E2808003F
:10006200FB14FB1F3B28FF30F300F200F100F0000D
:08007200FA0DF20CFF3008004A
:10007A0083160317971B45288312031388134828EE
:10008A0083120313881783160317171B502883122A
:10009A00031308135328831203130817831603172D
:1000AA00971A5B288312031388125E28831203139C
:1000BA00881683160317171A662883120313081261
:1000CA0069288312031308166D186D2807176E28FE
:1000DA00071387171A208713831603179719792886
:1000EA008312031388137C28831203138817831639
:1000FA0003171719842883120313081387288312F6
:10010A00031308178316031797188F2883120313EC
:10011A008812922883120313881683160317171856
:10012A009A288312031308129D28831203130816B0
:10013A006D18A1280717A228071387171A208713F3
:0C014A006D1CA9281D20AA282A200800EE
:100156007C18E128FC18B2287C190029AB28A001DC
:100166007208031DD2287108F2007008F1007808A1
:10017600F000F801A0157208031DD2287108F200DC
:100186007008F100F001A01120167208031DD22894
:100196007108F200F101A01572080319F42820086D
:1001A600F302031D031CF8280310F21BE128F80DC7
:1001B600F00DF10DF20DF30BD828F8287B1B701CFF
:1001C600FC28F81FFC28F00A0319F10A0319F20AA1
:1001D600031DFC28F20CF10CF00CF30A031900299C
:1001E600FC280130FC00032003290230FC000A2011
:1001F60003290430FC00162003290830FC003120B6
:0402060000000800EC
:10020A00A0017208031D1A297108F2007008F10092
:10021A00F001A0157208031D1A297108F200F101F4
:10022A00A01120167208031928292008F302031DB9
:10023A00031C2C290310F21B3029F00DF10DF20DCD
:10024A00F30B20292C290130FC000320332902302A
:0E025A00FC000A2033290430FC0016200800A6
:10026800831203136D1083160317150897003D209A
:040278006D140800F9
:10027C0083120313FB017308031D770803199529D7
:10028C0072087606FA007708F3077E30031C5229B1
:10029C00F302031898295529F302031C9B297208B1
:1002AC00F8007108FC007008FD00F817F617031031
:1002BC00F201F101F0011830A0007D1C6F297408C7
:1002CC00F00775080318750FF10776080318760FF9
:1002DC00F207F20CF10CF00CF80CFC0CFD0C0310FA
:1002EC00A00B6329F21B7F29F80DF00DF10DF20D17
:1002FC00F3037B1B701C9129F81F9129F00A031939
:10030C00F10A0319F20A031D9129F20CF10CF00CFD
:10031C00F30A03199829FA1FF21300309D290130B2
:10032C0003209D29023031209D2904300A20000031
:02033C000800B7
:10033E008312031372087606A000F801F901730800
:10034E007702031CC2297708FD007308F7007D08A9
:10035E00F3007608FD007208F6007D08F2007508BD
:10036E00FD007108F5007D08F1007408FD007008AD
:10037E00F4007D08F000770803193B2A7208FA0092
:10038E00F217F61777087302F7000319F5290830EC
:10039E007702031CEB29F7007408F9007508F400C6
:1003AE007608F500F60108307702031CEB29F700FA
:1003BE007408F9007508F400F50108307702031C83
:1003CE00EB297A08F2003B2A77080319F529031066
:1003DE00F60CF50CF40CF90CF70BEE29A01F022A03
:1003EE00F909F409F509F609F90A0319F40A0319CA
:1003FE00F50A0319F60A7908F80774080318740F3A
:10040E00F00775080318750FF10776080318760FB5
:10041E00F207A01B1B2A031C2B2AF20CF10CF00C6A
:10042E00F80CF30F2B2A372A03182F2AF809F00994
:10043E00F109F209F80A0319F00A0319F10A03196E
:10044E00F20A8030FA06332A0130FC00AB203D2A36
:10045E000230FC00AB203D2A0430FC0005213D2A71
:10046E000830FC0031203D2A0030FC00000008005E
:06047E00FB15FF30080031
:100484000E3083120313FD00FD0B462A0000080002
:10049400831603171508F2007208F100F20A160811
:1004A400F000960A700884000008F00071088400C7
:1004B400700880007108840000080319622A4E2A1B
:0604C4001508F00008001D
:1004CA0083120313FD01F80170080319003474063E
:1004DA00FA00FA1BFD09FB01F41F752AF409F40A54
:1004EA00F01F792AF009F00A70087404FA00FA1B5E
:1004FA009D2A7408F802F00D700DF80D7408F807BB
:10050A00F00D0630FC00700DF80D74087018F80232
:10051A00701CF807F00DFC0B882A701CF8077B1872
:10052A00AB2AFD1F0034F009F00AF809F80A003472
:10053A00F41FA82AF01BA52A7008F800F001962AD1
:10054A00F001F00A0034F009FB0A7E2AF80A74085E
:10055A007802031D962AF801F00AF01F962AFF3442
:02056A00080087
:10056C0083120313FA017308031D7A147708031D11
:10057C00FA147A080319022B033A0319CD2A7A18B4
:10058C00CA2AF61F002BFE2AF21FFE2A002B720825
:10059C008039FA00F21376088039F6137A060319BB
:1005AC00DB2A7A080319FE2A002B77087302031939
:1005BC00E22A031CF62AFA2A760872020319E92A9F
:1005CC00031CF62AFA2A750871020319F02A031C77
:1005DC00F62AFA2A740870020319022B0318FA2A55
:1005EC00FA080319002BFE2AFA080319FE2A002B1D
:1005FC000314080003100800031403150800080076
:10060C00182B803083160313ED002B2BC030ED001C
:10061C002B2B9430ED002B2BD430ED002B2B80307A
:10062C00ED002B2B831603136D08013A0319072BCE
:10063C006D08023A03190C2B6D08033A03190F2BA2
:10064C006D08043A0319122B152B6E03F0006D087C
:10065C00F0077008ED007008031797003D206D102F
:10066C000317EB016B08831603136F078400000854
:10067C0003194E2B831203176B08831603136F0792
:10068C00840000080317950034210317EB0A382B5C
:08069C00831203136D14080022
:0E06A400831203136F088A006E08820008009C
:1006B200831203137408003A031D742B7508003A61
:1006C200031D742B7608003A031D742B7708003A39
:1006D200031D742BFF30F000FF30F1007F30F20079
:1006E200FF30F3000F2C8312031377080319032C36
:1006F20073080319062C720876068039FA00F2177D
:10070200F617A0017208F8007108FC007008FD00DD
:100712007408FD027508031C750FFC027608031CA1
:10072200760FF802F801FC01FD01031C9F2B031058
:10073200F20CF10CF00CF80C0130A0007708F30277
:10074200031CA92B7E302007F3070318092CAE2BBC
:100752007E302007F307031C0C2C1830FA07FD0D1E
:10076200FC0DF80DF00DF10DF20DA00D7408F00264
:100772007508031C750FF1027608031C760FF2024E
:10078200760DA004201CC72B7D14D22B7408F00711
:1007920075080318750FF10776080318760AF20731
:1007A2007D10FA031F307A05031DB02B7B1B7D1CC5
:1007B200F92B0310F00DF10DF20DA00D7408F002EB
:1007C2007508031C750FF1027608031C760FF202FE
:1007D200760D20040139FD070318FC0A0319F80AF3
:1007E200031DF92BF80CFC0CFD0CF30A0319092C60
:1007F200FA1FF8137808F2007C08F1007D08F00077
:1008020000300E2C01303F220E2C023003200E2C21
:0E081200043031200E2C08300A2000000800AF
:1008200083160313EF010317940183126B088316D9
:10083000900083126C088316910083126D08831652
:10084000920083126E08831693001308FF3A031D6B
:10085000332C1208FF3A031D332C1108FF3A031DF5
:10086000332C1008FF3A031D3F2C83126F088316A8
:1008700095005E3096004A220330F000502E013081
:100880000313ED000317921F532C80301206F00063
:10089000700892000313ED0A831203176F08840097
:1008A0002D308000EF0A0030F00083161306031D80
:1008B000632C70081206031D632C70081106031DBB
:1008C000632C1008003A031D6E2C83126F088316E8
:1008D0009500663096004A22F001502E1308FF3A28
:1008E000031D7C2C1208003A031D7C2C1108003AD1
:1008F000031D7C2C1008003A031D892C83126F08FD
:1009000083169500623096004A2203136D08F000AA
:10091000502E0030F4000030F5000030F6007F303B
:10092000F70003171008F0001108F1001208F20098
:100930001308F300B622013003180030F0007008ED
:100940000319C12C831603171008F0001108F100D9
:100950001208F2001308F3000030F4000030F50034
:100960002030F6008230F7003E217008831603170E
:10097000900071089100720892007308930094032C
:10098000892C831603170030F4000030F500203066
:10099000F6008230F7001008F0001108F10012088C
:1009A000F2001308F300B6220130031C0030F000FF
:1009B00070080319FA2C831603171008F0001108A9
:1009C000F1001208F2001308F300CD30F400CC302F
:1009D000F5004C30F6007B30F7003E21700883169E
:1009E0000317900071089100720892007308930039
:1009F000940AC12C83160317FF301005F800FF304E
:100A00001105F9007F301205FA0000301305FB00D4
:100A10007808F4007908F5007A08F6007B08F700FA
:100A2000F40DF50DF60DF70D741000301005F00003
:100A300000301105F10000301205F200FF301305FF
:100A4000F30070089000710891007208920073081A
:100A5000930074081004F00075081104F100760882
:100A60001204F20077081304F30070089000710874
:100A7000910072089200730893007F301302F00017
:100A800070080313EE000130031793007008F400A0
:100A90001008F0001108F1001208F2001308F3002A
:100AA000740803195A2DF00DF10DF20DF30D7010AD
:100AB000FF3E512D7008900071089100720892005D
:100AC000730893001308303EF00083126F0884000F
:100AD00070088000EF0A803083161406F000803022
:100AE000013A7002031C7D2D8030063AF000803000
:100AF00014067002031C7D2D872D83126F0884005D
:100B00002E308000EF0A013083160313EF00031329
:100B10000630EE006E08003A0319EF2D031793011B
:100B20001008F0001108F1001208F2001308F30099
:100B3000F00DF10DF20DF30D7010F00DF10DF20D41
:100B4000F30D70101008F00711080318110FF107CA
:100B500012080318120FF20713080318130FF307F4
:100B60007008900071089100720892007308930059
:100B70001008F0001108F1001208F2001308F30049
:100B8000F00DF10DF20DF30D70107008900071086A
:100B9000910072089200730893001308303EF00031
:100BA00083126F08840070088000EF0A8316031315
:100BB0006F08003A031DEC2D031794031408003A44
:100BC000031DEC2D83126F0884002E308000EF0A85
:100BD000013083160313EF000313EE038A2DFF3059
:100BE000831203176F0784000008303A031DFA2DA3
:100BF000EF03EF2DFF306F07840000082E3A031D2E
:100C0000022EEF0383161408003A03194B2E8312A9
:100C10006F08840065308000EF0A80308316140668
:100C2000F0008030003A70020318202E83126F0803
:100C300084002D308000EF0A83161408003C9400D5
:100C400014080313EE008030093AF00080300317D7
:100C50001406700203183A2E0A30F40003136E08CB
:100C6000F00065223030F00703176F088400700829
:100C70008000EF0A0A30F400831603136E08F000B8
:100C800065227808F0003030F00703176F08840001
:100C900070088000EF0A83126F0884008001F00161
:020CA00008004A
:100CA200831203139F01C0309F042E09F0007008C5
:100CB20083169F051F179F176D08F000F00D701027
:100CC200F00D7010F00D7010700883129F041F1445
:100CD20042221F151F1D6F2E00006B2E1F101E08B3
:100CE200F100F00183161E08F0040030F104080040
:100CF200831203137008F8007108F000F101F20189
:100D0200F301FB01FC019630F300FA017008F100D7
:0C0D12007808F000F801F201052108004B
:0C0D1E00831203138030F6069F210800AA
:100D2A00033083160313ED00512679260030F400B0
:100D3A000030F5002030F6007730F7003E217008C9
:100D4A000317B5007108B6007208B7007308B80037
:100D5A00043083160313ED00512679260030F4007F
:100D6A000030F5002030F6007730F7003E21700899
:100D7A000317C1007108C2007208C3007308C400D7
:100D8A007008F4007108F5007208F6007308F7009D
:100D9A003508F0003608F1003708F2003808F30089
:100DAA008F2670080317BD007108BE007208BF00C5
:100DBA007308C0000030F4000030F5002030F6005F
:100DCA008230F70059230030F4000030F5007A3001
:100DDA00F6008830F7003E2170080317B900710841
:100DEA00BA007208BB007308BC007008EB007108F7
:100DFA00EC007208ED007308EE006230EF00102478
:100E0A00013083160313ED000130EE006230EF006B
:100E1A00062301308316ED000A30EE00E230EF00BF
:040E2A000623080093
:100E2E00013083160313ED00512679260030F400AD
:100E3E000030F5002030F6007730F7003E217008C4
:100E4E000317D1007108D2007208D3007308D400C2
:100E5E000030F4000030F5002030F6008230F7004C
:100E6E003E2170080317CD007108CE007208CF0026
:100E7E007308D00083160313ED0151267926003036
:100E8E00F4000030F5002030F6007730F7003E21F8
:100E9E0070080317C9007108CA007208CB007308E6
:100EAE00CC000030F4000030F5002030F600823027
:100EBE00F7003E2170080317D5007108D60072089E
:100ECE00D7007308D8007008F4007108F500720896
:100EDE00F6007308F7004D08F0004E08F1004F08B9
:100EEE00F2005008F3008F2670080317DE00710819
:100EFE00DF007208E0007308E1007008EB00710873
:100F0E00EC007208ED007308EE005930EF0010246B
:100F1E00013083160313ED000130EE005930EF005F
:100F2E00062301308316ED000A30EE002730EF0065
:040F3E00062308007E
:100F420052238A110A128000840AEE0A0319EF0A58
:080F5200F003031DA12F0800AC
:10100000023083160313ED008A1151268A158A11C6
:1010100079268A150030F4000030F5002030F60003
:101020007730F7008A113E218A1570080317E70010
:101030007108E8007208E9007308EA006708C50053
:101040006808C6006908C7006A08C8006708F40095
:101050006808F5006908F6006A08F7000030F0003B
:101060000030F1002030F2008130F3008A118F2629
:101070008A157008F4007108F5007208F60073080C
:10108000F70003176708F0006808F1006908F2002C
:101090006A08F3008A1159238A150030F4000030E1
:1010A000F5002030F6008230F7008A113E218A15C3
:1010B00070080317B1007108B2007208B30073081A
:1010C000B4007008EB007108EC007208ED007308C2
:1010D000EE006830EF008A1110248A150130831663
:1010E0000313ED000130EE006830EF008A11062393
:1010F0008A1501308316ED000A30EE002130EF0032
:081100008A1106238A1508007C
:10110800831603138713071308128812081388130A
:1011180083128713071388130813881208128A1179
:101128001D208A158A111D208A158A111D208A15ED
:101138008816081687178A111A208A1587138A11A4
:101148001D208A1587178A111A208A1587138A1174
:101158001D208A1587178A111A208A1587138A1164
:101168001D208A15081287178A111A208A158713D5
:101178008A111D208A1587178A111A208A15871344
:101188008812881787178A111A208A1587138A11D7
:101198001D208A158813081687178A111A208A15A0
:1011A8008713081287178A111A208A1587138A113C
:1011B8001D208A1587178A111A208A158713081681
:1011C80087178A111A208A1587138A111D208A15F4
:1011D800081287178A111A208A1587138817081783
:1011E8008816081687178A111A208A1587138A11F4
:0811F8001D208A156D1408008A
:101200001422831603130514851405158515051678
:1012100006148614061584200130831603179700E0
:101220008A113D208A15061C2F2901308316ED00F6
:101230000130EE00C130EF008A1106238A158A11B1
:1012400017278A150230FB000430FC00BA30FD007D
:10125000FD0B2829FC0B2829FB0B28290000861CE4
:10126000492901308316ED000130EE001030EF0007
:101270008A1106238A1500200230FB000430FC008E
:10128000BA30FD00FD0B4229FC0B4229FB0B422921
:101290000000061D652901308316ED000130EE00C7
:1012A000A030EF008A1106238A158A1195268A1527
:1012B0000230FB000430FC00BA30FD00FD0B5E295B
:1012C000FC0B5E29FB0B5E290000061869297014CF
:1012D0006A29701086186E2903146F290310701C78
:1012E0007529031C752970147629701006197A293E
:1012F00003147B290310701C8129031C812970149D
:1013000082297010701CA52901308316ED00013070
:10131000EE003D30EF008A1106238A150130831656
:10132000ED000130EE002F30EF008A1106238A1500
:101330000230FB000430FC00BA30FD00FD0B9E299A
:0E134000FC0B9E29FB0B9E2900001329A629F9
:1014280021308400473083120313F000AC30EE0003
:101438000930EF008A11A1278A15A03084004D30A9
:101448008312F000AD30EE000730EF008A11A127BB
:101458008A1510308317840021308312F000F3308E
:10146800EE000930EF008A11A1278A1583130800BE
:100F5A0020342034203420342034203420342034E7
:100F6A0020342034203420342034203420342034D7
:100F7A0020342034203420342034203420342034C7
:100F8A0020342034203420342034203420342034B7
:020F9A00003421
:100F9C0020342034203420342034203420342034A5
:100FAC002034203420342034203420342034203495
:100FBC002034203420342034203420342034203485
:100FCC002034203420342034203420342034203475
:020FDC000034DF
:100FDE00203420346D34203441344D345034453473
:060FEE00523445340034CA
:0C135800203420344F3448344D3400342D
:0E1364002034203456344F344C34543400348A
:021372000F3436
:10137400433448344F344F34533445342034543494
:0C138400593450344534203458340034BF
:1013900020342034203420342034203420342034AD
:1013A000203420342034203420342034203420349D
:1013B000203420342034203420342034203420348D
:1013C000203420342034203420342034203420347D
:0213D0000034E7
:0813D2004E3461344E34003446
:0813DA0049344E34463400345E
:0413E200303400346F
:1013E6002034203420342034203420342034203457
:1013F6002034203420342034203420342034203447
:101406002034203420342034203420342034203436
:101416002034203420342034203420342034203426
:02142600003490
:02400E004A2F37
:00000001FF
